:020000040000FA
:1000000001280313831671308F001030850086019C
:10001000031788018901831203130130A300803084
:10002000A4000530A2002308240486002E20A30C7F
:10003000A40DA3172414A20B13281030A30008301A
:10004000A4000530A2002308240486002E20A30D5E
:10005000A40C2316A415A20B23280D283620362025
:10006000362036203620362036200800D030A0003A
:0E007000D030A100A10B3A28A00B38280800C0
:02007E0000344C
:0200800000344A
:02400E00D520BB
:02401000FF3F70
:00000001FF
