:020000040000FA
:060000000A128A110E280D
:10000800FE00030EF0000A08F1007F08F2000A1251
:100018008A15252D0A128A1111288317C830FD0068
:100028001730FE007A30FF00B03084000A168A11BB
:1000380057270A128A118313E930FD001730FE0092
:100048006630FF00D53084000A168A1157270A1235
:100058008A110A128A11FA270A128A11EF000A1263
:100068008A11F9270A128A11FA008317903084003E
:10007800B0300A168A11F2260A128A118313A030A8
:100088008400D5300A168A11F2260A128A115830CD
:1000980084006F300A168A11F2260A128A11F801B2
:1000A800F90183010A128A119B2B831203132D086D
:1000B800B7008030B7052D08B2003207BD00AC1F6D
:1000C8006628672868283D143D0803196C286D28A0
:1000D8007C283D0A031D712872287A280030AD005B
:1000E8000030AC000030AB000030AA00AC17842808
:1000F8000030AD000030AC000030AB000030AA008A
:1001080031088039B7063108B2003207BC00B01F89
:100118008E288F2890283C143C0803199428952889
:10012800A4283C0A031D99289A28A2280030B10067
:100138000030B0000030AF000030AE00B017AC287F
:100148000030B1000030B0000030AF000030AE0029
:100158003C080319B028B128B6283D08031DB52866
:10016800B628BF280030AD000030AC000030AB002E
:100178000030AA009A2B2A08F30030080A128A15C0
:10018800B0200A128A11740883120313C30073087B
:10019800C2004208B200B301B401B5013508BB0082
:1001A8003408BA003308B9003208B8004308B2006E
:1001B800B301B401B5013508C1003408C0003308E3
:1001C800BF003208BE002B08F3002F080A128A1558
:1001D800B0200A128A11740883120313C30073082B
:1001E800C2004208B200B301B401B5013208B80731
:1001F800330803110318013E03190329B90734080A
:1002080003110318013E03190A29BA073508031117
:100218000318013E03191129BB074308B200B301B3
:10022800B401B5013208BE07330803110318013EB3
:1002380003191F29BF07340803110318013E0319C6
:100248002629C007350803110318013E03192D2973
:10025800C1072C08F3002E080A128A15B0200A12CA
:100268008A11740883120313C3007308C20042087A
:10027800B200B301B401B5013208B807330803115D
:100288000318013E03194929B90734080311031853
:10029800013E03195029BA07350803110318013E16
:1002A80003195729BB074308B200B301B401B501CC
:1002B8003208BE07330803110318013E03196529E4
:1002C800BF07340803110318013E03196C29C0073E
:1002D800350803110318013E03197329C1070830B3
:1002E800B2000310B80DB90DBA0DBB0DB20B7529CC
:1002F8002B08F3002E080A128A15B0200A128A1158
:10030800740883120313C3007308C2004208B200C2
:100318004308B300B401B5013208B8073308031124
:100328000318013E03199929B90734080311031862
:10033800013E0319A029BA07350803110318013E25
:100348000319A729BB072A08F3002F080A128A15E0
:10035800B0200A128A11740883120313C3007308A9
:10036800C2004208B2004308B300B401B501320824
:10037800B807330803110318013E0319C429B90744
:10038800340803110318013E0319CB29BA073508AD
:1003980003110318013E0319D229BB070830B20024
:1003A8000310B80DB90DBA0DBB0DB20BD4292A082C
:1003B800F3002E080A128A15B0200A128A1174084E
:1003C80083120313C3007308C2004208B200430833
:1003D800B300B401B5013208B80733080311031894
:1003E800013E0319F829B907340803110318013E1F
:1003F8000319FF29BA07350803110318013E031929
:10040800062ABB072B08F30030080A128A15B02009
:100418000A128A11740883120313C3007308C200F6
:100428004208B2004308B300B401B5013208BE0760
:10043800330803110318013E0319232ABF073408A0
:1004480003110318013E03192A2AC00735080311AE
:100458000318013E0319312AC1072C08F3002F089D
:100468000A128A15B0200A128A117408831203131B
:10047800C3007308C2004208B2004308B300B401C5
:10048800B5013208BE07330803110318013E0319EA
:100498004E2ABF07340803110318013E0319552AD1
:1004A800C007350803110318013E03195C2AC10768
:1004B8002C08F30030080A128A15B0200A128A1193
:1004C800740883120313C3007308C2004208B20001
:1004D8004308B300B401B50108300310B20DB30DE1
:1004E800B40DB50DFF3E031D712A3208BE0733084F
:1004F80003110318013E0319822ABF0734080311A8
:100508000318013E0319892AC00735080311031887
:10051800013E0319902AC1073808B2003908B30010
:100528003A08B4003B08B50018300310B50CB40CF9
:10053800B30CB20CFF3E031D992A3208BE073308DC
:1005480003110318013E0319AA2ABF07340803112F
:100558000318013E0319B12AC0073508031103180F
:10056800013E0319B82AC1070830B2000310B80DBC
:10057800B90DBA0DBB0DB20BBA2A3D083C07B20043
:10058800B301B30D3208823EC20033080318013E9E
:10059800FF3EC300EC2A0130B2000310BE0DBF0DB0
:1005A800C00DC10DB20BD12ABB1FDB2ADC2ADD2A04
:1005B8003E140130B2000310B80DB90DBA0DBB0DD1
:1005C800B20BDF2AFF30C2070318C30AFF30C30784
:1005D800C01FEF2AF02ACF2ABC01BB1FF42AF52A34
:1005E800112BFF303805B200FF303905B300FF305A
:1005F8003A05B4007F303B05B500350834043304B0
:1006080032040319082B092B0C2B0130BC00112BC9
:100618003E1C0F2B102B112B092B3C080319152BF3
:10062800162B472B0130BE07003003180130BF07D7
:10063800003003180130C007003003180130C1072B
:10064800411C272B282B472B3E08B2003F08B3003C
:100658004008B4004108B5000130B600350DB50CAE
:10066800B40CB30CB20CB60B322B3508C1003408ED
:10067800C0003308BF003208BE000130C2070318AB
:10068800C30A0030C3074308803AFF0080307F0266
:10069800031D502BFF304202031C532B542B5F2B9E
:1006A8007F3083120313C1008030C0000030BF00C8
:1006B8000030BE00902B831203134308803AFF00DA
:1006C80080307F02031D6A2B0130420203186D2B14
:1006D8006E2B7A2B003083120313C1000030C00048
:1006E8000030BF000030BE00B701902B8312031307
:1006F8004208BD00FF30BE05FF30BF057F30C00592
:100708000030C1053D1C892B8A2B8B2BC0173D0857
:10071800B2000310320CC1003708C1044108AD0013
:100728004008AC003F08AB003E08AA000800713042
:10073800831603138F000A128A15D9200A128A1108
:1007480083120313A0016930A10000300A128A1530
:1007580003210A128A11153083120313D7004B3074
:10076800D600BD30D500D50BB72BD60BB72BD70B82
:10077800B72BBE2B0A168A1130270A128A110A16BD
:100788008A1104270A128A110A128A15D4210A1218
:100798008A110A168A1120270A128A11831603134E
:1007A80089018801831203138801831603138715AF
:1007B80005148514051583160317081183160313EA
:1007C80085158316031788110A168A1111270A122C
:1007D8008A11922C0A128A11B3240A128A118312DE
:1007E800031362036304031DFA2BFB2B022CDA01AB
:1007F800DB01D801D9010130F900922C60036104B2
:10080800031D072C082C922C0530F900922C851218
:100818000A128A15C6250A128A11831203136B0855
:10082800803AFF0080307F02031D1C2C26306A02AC
:10083800031C1F2C202C322C013083120313690255
:10084800E13003196802031C2A2C2B2C322C0330AC
:10085800F900DE01DF01DC01DD01922C83120313B4
:1008680058035904031D392C3A2C922C0230F900F4
:10087800DC01DD01DE01DF01D801D901922C0A1269
:100888008A159C230A128A118312031366036704CC
:10089800031D4F2C502C532C0430F900922C5C0370
:1008A8005D04031D582C592C922CDA01DB01013010
:1008B800F900DC01DD01922C0A168A11FA260A12C7
:1008C8008A11831203135C035D04031D6C2C6D2CC9
:1008D800922C0130F900DC01DD01DA01DB01922CF8
:1008E800070CD500D50C550C0139D600D701560890
:1008F800E4005708E50064036504031D842C852C77
:10090800922CF901922C0A128A152A230A128A11AA
:100918000A128A11A5260A128A11852C79088312CF
:100928000313D500D6015608003A03199C2C922CC3
:100938005508003A0319EE2B013A03190B2C033A18
:100948000319432C013A0319602C073A0319742C34
:10095800013A0319872C922C0A128A110E280A16BA
:100968008A1130270A128A1183120313A001193041
:10097800A10000300A128A1503210A128A11C03018
:100988000A128A152F210A128A110A128A151F279C
:100998000A128A11FA007A080319D32CD42CE22CF3
:1009A8002A300A128A1565210A128A117808D03E5F
:1009B80084007A08831380000130F8070530780234
:1009C800031CE72CE82CC92CD030F3000130F400CC
:1009D8000430F5000030F6000A128A156B220A125C
:1009E8008A1173087404031DFA2CFB2C2E2D0A1689
:1009F8008A1130270A128A1183120313A0014B307F
:100A0800A10000300A128A1503210A128A11013046
:100A18000A128A1565210A128A11F4308312031307
:100A2800A0000130A100F430A2000130A300B830CA
:100A3800A4000B30A50056300A128A15C7220A12E4
:100A48008A1183120313EC01ED010130E20000303A
:100A5800E3009F2D0A168A1130270A128A11831281
:100A68000313A0012A30A10000300A128A150321BD
:100A78000A128A1102300A128A1565210A128A118D
:100A880083120313E201E301E001E1012C30A0002D
:100A98000130A100BC30A2000230A300D030A40075
:100AA8000730A50041300A128A15C7220A128A1196
:100AB800831203136C08013EEC006D080318013E15
:100AC800003EED0003306C066D04031D6C2D6D2D8A
:100AD8009F2D0130E0000030E1000A168A1130270E
:100AE8000A128A1183120313A0010730A1000030F3
:100AF8000A128A1503210A128A1100300A128A156D
:100B080065210A128A112C3083120313A0000130C8
:100B1800A100F430A2000130A300B830A4000B30CB
:100B2800A50052300A128A15C7220A128A118312A6
:100B38000313EC01ED01153083120313B5004B309C
:100B4800B400BD30B300B30BA72DB40BA72DB50B64
:100B5800A72DAE2D0A168A1130270A128A11F8011C
:100B68000800831203132B088400000884000A126B
:100B78008A150A200A128A11253A031DC42DC52D8B
:100B88008B2E2B0884000130800783160313A001E5
:100B9800A101003083120313EE00FF308316031304
:100BA800A200FF30A300831203132B08840000085F
:100BB800B000300884000A128A150A200A128A1125
:100BC800643A0319E82DE92DF52D300884000A123E
:100BD8008A150A200A128A11693A031DF42DF52D87
:100BE800842E2C08840083130008FF00023080073D
:100BF8007F0884000008B100840A0008B2002B08AE
:100C080084003008013E80002030B500B21B0D2E54
:100C18000F2E0130102E0030AF000130B50235081C
:100C2800903E84000A30F3000030F4003208F600E9
:100C38003108F5000A128A1512220A128A1174085C
:100C480083120313A3007308A2000A168A1140270F
:100C58000A128A11831203132208303E8317800078
:100C68000A30F3000030F4003208F6003108F500CD
:100C78000A128A1194270A128A117408831203131C
:100C8800B2007308B1003108320403194C2E4D2EFE
:100C9800522E3508031D512E522E112E35080319D8
:100CA800562E572E7D2E2F0803195B2E5C2E7D2E77
:100CB8000130B5023508903E84002D30831780003E
:100CC8007D2E3508903E840083170008AD00AE01E4
:100CD8002D08F3002E08F4002908F5002A08F6006C
:100CE8000A128A1585240A128A1101308312031305
:100CF800B50720303506031D822E832E652EA42EBF
:100D0800831203132B08840001308007A42E2B08BC
:100D18008400000884000A128A150A200A128A111F
:100D2800AD00AE012D08F3002E08F4002908F500E7
:100D38002A08F6000A128A1585240A128A11842EB6
:100D48000800A03083120313AA000030AB00013062
:100D5800AC000030AD00A401A501A001A1018312DF
:100D680003132C082A04A4002D082B04A50024082A
:100D780088000630F5001330F400AD30F300F30BB3
:100D8800C32EF40BC32EF50BC32ECA2E83120313E6
:100D98002B08F4002A08F3000310F40CF30C730872
:100DA800AA007408AB0003102C0DAC002D0DAD008B
:100DB8002C082A04A4002D082B04A5002408880068
:100DC8000630F5001330F400AD30F300F30BEA2ED3
:100DD800F40BEA2EF50BEA2EF12E831203132C08DE
:100DE8002A04A4002D082B04A50003102A0DAA002C
:100DF8002B0DAB0003102C0DAC002D0DAD000130F8
:100E0800A0070318A10A0030A1072108803AFF00B3
:100E180080307F02031D122F02302002031C152F81
:100E2800162FB32EA03083120313AE000030AF008C
:100E38000830A8000030A900A601A701A201A3015B
:100E48008312031328082E04A60029082F04A700DC
:100E5800260888000630F5001330F400AD30F300A2
:100E6800F30B342FF40B342FF50B342F3B2F831255
:100E780003132F08F4002E08F3000310F40CF30CEE
:100E88007308AE007408AF002908F4002808F300BE
:100E98000310F40CF30C7308A8007408A9002808C0
:100EA8002E04A60029082F04A7002608880006306B
:100EB800F5001330F400AD30F300F30B612FF40BA1
:100EC800612FF50B612F682F831203132E082E0450
:100ED800A6002F082F04A70003102E0DAE002F0D1B
:100EE800AF002908F4002808F3000310F40CF30CF1
:100EF8007308A8007408A9000130A2070318A30A00
:100F08000030A3072308803AFF0080307F02031DCA
:100F18008F2F02302202031C922F932F242F0800B8
:100F280083120313A101F41F9A2F9B2FA22FF309F9
:100F3800F409F30A0319F40A0130A100F61FA52FDA
:100F4800A62FAD2FF509F609F50A0319F60A01309F
:100F5800A106A201A301730874040319B42FB52FC5
:100F6800EA2F0130A000C12F01300310F30DF40D5A
:100F7800FF3E031DB92F0130A007F41FC42FC52F52
:100F8800B82F01300310A20DA30DFF3E031DC62F7D
:100F980074087602031DD22F73087502031CD52F1F
:100FA800D62FDD2F7308F5027408031CF603F6022A
:100FB800221401300310F40CF30CFF3E031DDE2F46
:100FC8000130A002031DE92FEA2FC52F21080319BC
:100FD800EE2FEF2FF42FA209A309A20A0319A30ADF
:100FE8002308F4002208F300080030340134080014
:10100000FF1B0A2883137F1883170008840A03191B
:10101000FF0A080008308A000408840A82070034A6
:10102000323430343234313431340034733469344E
:101030007334743465346D346134203462346C3408
:101040006F34713475346534613464346F34003412
:101050005034723465347334733420346134203442
:101060004B34653479342034203420342034203417
:10107000003443346C34613476346534203449347C
:101080006E3463346F347234723465346334743460
:1010900061340034543445344D3450343A342034BF
:1010A00025346434203420344C343A34203425340C
:1010B0006434003443346C34613476346534203421
:1010C00043346F347234723465346334743461344D
:1010D0000034503455343A342034253464342034C8
:1010E0002034563445343A342034253464340034C2
:1010F0004234493445344E34563445344E34493400
:1011000044344F34003441344D344234493445344E
:101110004E34543441344C34003445345634453420
:0A1120004E3454344F34533400347D
:10112E00A1280330F6009730F500F50B9C28F60B3E
:10113E009C28A1280130F3020030031CF403F402B2
:10114E00730A031DAE28740A031DAE28AF28982813
:10115E00080083120313A400A001A1017308F50077
:10116E00F6017508A2007608A300241CBF28C0282B
:10117E00C6282208A0070318A10A2308A1070130D8
:10118E000310A20DA30DFF3E031DC7280310A40CD0
:10119E002408031DD328D428BC282108F4002008D5
:1011AE00F30008008316031387012730F700F5308C
:1011BE00F600F60BE028F70BE02802300A128A152B
:1011CE002F210A128A1528300A128A152F210A1287
:1011DE008A1501300A128A152F210A128A150C302F
:1011EE000A128A152F210A128A1506300A128A153A
:1011FE002F210A128A15080083120313A20002304F
:10120E00220203180B290C29172920080F398038C0
:10121E00A30023080A128A152F210A128A152129E2
:10122E0020080F39C038A30023080A128A152F216F
:10123E000A128A15831203132108F6000030031DCB
:10124E008030F7000A168A11DA270A128A1508006A
:10125E00F500F0307505F3008312031307080F39FC
:10126E00730487000710871400008312031387107E
:10127E000330F4009730F300F30B4329F40B4329AA
:10128E0048297508F30004300310F30DFF3E031DCB
:10129E004B298312031307080F3973048700871431
:1012AE0000008312031387100830F400C930F300D6
:1012BE00F30B5F29F40B5F2964290800F500F03069
:1012CE007505F3008312031307080F3973048700A3
:1012DE000714871400008312031387100330F400E1
:1012EE009730F300F30B7929F40B79297E297508D1
:1012FE00F30004300310F30DFF3E031D812983120A
:10130E00031307080F397304870087140000831234
:10131E00031387100830F400C930F300F30B95293E
:10132E00F40B95299A29080073080F3983120313B9
:10133E00A000A00DA00D1F082006C33920069F0097
:10134E001F14133083120313A000A00BAC298312B9
:10135E0003139F149F18B429B529B1291E08A000A4
:10136E00A1012008F5002108F6007508A100A001D2
:10137E00831603131E08831203132007A2000030E6
:10138E00031801302107A3002208F5002308F600F8
:10139E007608F4007508F3000800F7017708831249
:1013AE000313A00002300310A00DFF3E031DDA2927
:1013BE000310200D403E0A128A152F210A128A159B
:1013CE00F601770883120313A00003300310A00D5B
:1013DE00FF3E031DED29B0302007A100760821073E
:1013EE00A20022088400831700080A128A156521BC
:1013FE000A128A150130F60708307602031C082AF5
:10140E00092AE8290130F70703307702031C102A56
:10141E00112AD529080083120313A101F61F182AD9
:10142E00192A202AF509F609F50A0319F60A0130D8
:10143E00A100F41F232A242A292AF309F409F30A06
:10144E000319F40A7308740403192E2A2F2A5C2A2E
:10145E000130A0003B2A01300310F30DF40DFF3EC6
:10146E00031D332A0130A007F41F3E2A3F2A322AD9
:10147E0074087602031D452A73087502031C482A58
:10148E00492A4F2A7308F5027408031CF603F60264
:10149E0001300310F40CF30CFF3E031D502A0130F3
:1014AE00A002031D5B2A5C2A3F2A21080319602A29
:1014BE00612A662AF509F609F50A0319F60A76086D
:1014CE00F4007508F30008000130F5020030031C2B
:1014DE00F603F602750A031D782A760A031D782A8A
:1014EE00792A862AF301F401C62A0130F307013066
:1014FE00F4070130F5020030031CF603F602730800
:10150E0084008313000803198D2A8E2AB22A7408C8
:10151E0084000A128A150A200A128A15003A031943
:10152E00992A9A2AB22A7508760403199F2AA02AA4
:10153E00B22A740884000A128A150A200A128A1521
:10154E0083120313A00073088400000820060319F9
:10155E00B12AB22A7C2A740884000A128A150A203B
:10156E000A128A1583120313A00073088400000860
:10157E00A10020082102F300F401031CF40308006B
:10158E0083120313AA00A801A9011F2B56302A06A5
:10159E00031DD22AD32AD52A8914E42A41302A06D9
:1015AE00031DDA2ADB2ADD2A0915E42A52302A061F
:1015BE00031DE22AE32AE42A09142108F400200874
:1015CE00F3000A128A1597200A128A1556308312D2
:1015DE0003132A06031DF42AF52AF72A8910062B6F
:1015EE0041302A06031DFC2AFD2AFF2A0911062B6B
:1015FE0052302A06031D042B052B062B0910230837
:10160E00F4002208F3000A128A1597200A128A158E
:10161E008312031322082007A60023080318230AA7
:10162E002107A7002608A8070318A90A2708A90753
:10163E0025082902031D252B24082802031C282B0C
:10164E00292BCD2A0800A03083120313A4000030EA
:10165E00A5000130A6000030A700A201A301A00141
:10166E00A1018312031326082404A20027082504CF
:10167E00A300220888000630F5001330F400AD30C8
:10168E00F300F30B482BF40B482BF50B482B4F2B89
:10169E00831203132508F4002408F3000310F40C3E
:1016AE00F30C7308A4007408A5000310260DA60001
:1016BE00270DA70026082404A20027082504A3004E
:1016CE00220888000630F5001330F400AD30F30028
:1016DE00F30B6F2BF40B6F2BF50B6F2B762B8312FB
:1016EE00031326082404A20027082504A3000310D0
:1016FE00240DA400250DA5000310260DA600270D10
:10170E00A7000130A0070318A10A0030A107210885
:10171E00803AFF0080307F02031D972B023020029B
:10172E00031C9A2B9B2B382B080083120313050CDA
:10173E00CD004D0C0139D100050CCD00CD0C4D0C5A
:10174E000139D2000A168A1130270A128A1583121D
:10175E000313A0017E30A10000300A128A15032166
:10176E000A128A15C0300A128A152F210A128A15FA
:10177E00B03083120313BA005A30BB005108CD00AB
:10178E00CE014D08BC004E08BD005208CF00D0015E
:10179E004F08BE005008BF000A168A1192270A127F
:1017AE008A15B030F6000030F7000A168A11DA27D3
:1017BE000A128A15063083120313CF001330CE009F
:1017CE00AD30CD00CD0BE92BCE0BE92BCF0BE92B9A
:1017DE0083120313051DF42BF52BFE2B851DF82B01
:1017EE00F92BFE2B0130E6000030E700002CE6015D
:1017FE00E701063083120313CF001330CE00AD3055
:10180E00CD00CD0B082CCE0B082CCF0B082C0800CE
:10181E00031083120313460D470DCD004D08031D13
:10182E00192C1A2C232C0030C7000030C6000030B3
:10183E00C5000030C400842C4408C8004508C90007
:10184E004608CA004708CB001F300310CB0CCA0C49
:10185E00C90CC80CFF3E031D2C2C4808CC00C61723
:10186E00FF30C405FF30C505FF30C6050030C70583
:10187E009630CD02CD1F442C452C5D2C4D08803A60
:10188E00973E03184B2C4C2C4D2C1A2C0130031068
:10189E00C70CC60CC50CC40CFF3E031D4E2C0130EC
:1018AE00CD07031D5B2C5C2C4D2C742C20304D026F
:1018BE00031C622C632C6F2C1A2C0130C8000310F1
:1018CE00C40DC50DC60DC70DC80B662C0130CD025B
:1018DE004D08031D732C742C642C4C080319782CA2
:1018EE00792C842CC409C509C609C709C40A031971
:1018FE00C50A0319C60A0319C70A08007508760433
:10190E0003198A2C8B2C912C75087604031D902CB0
:10191E00912C982C73080A128A11FB270A128A1529
:10192E00242D7508093E83120313A00076080318B0
:10193E00013E003EA100200884008317211C831362
:10194E000008A200840A0008A30022082304031939
:10195E00B12CB22CE42C7508093EA00076080318B1
:10196E00013E003EA100200884008317211C831332
:10197E000008A200840A0008A3007508023EA40015
:10198E0076080318013E003EA50024088400831744
:10199E00251C83130008A600840A0008A700270848
:1019AE00803AA8002308803A2802031DE02C220862
:1019BE0026020318E32CE42C242D750884008317CB
:1019CE00761C8313000883120313A000840A0008F8
:1019DE00A1007508023EA20076080318013E003EE3
:1019EE00A300220884008317231C831300082007FA
:1019FE00A5002108A4000318A40A801F072DA40324
:101A0E00831203132408A600250884008317261CBE
:101A1E008313730880007508023EA0007608031831
:101A2E00013E003EA100200884008317211C831371
:101A3E0001308007840A0318800A0800FC308312E4
:101A4E0003138F0016308E000130DE070318DF0AF5
:101A5E000030DF075F08803AFF008B307F02031DE6
:101A6E003A2DB9305E02031C3D2D3E2D462D8312BC
:101A7E000313DE01DF010130DC000030DD00013038
:101A8E0083120313DA070318DB0A0030DB075B0847
:101A9E00803AFF0093307F02031D572D89305A0282
:101AAE00031C5A2D5B2D632D83120313DA01DB0108
:101ABE000130D8000030D900013083160313AE0771
:101ACE000318AF0A0030AF072F08803AFF0093309B
:101ADE007F02031D742D89302E02031C772D782D65
:101AEE00802D83160313AE01AF010130AC00003020
:101AFE00AD00013083160313AA070318AB0A00309A
:101B0E00AB072B08803AFF0083307F02031D912D17
:101B1E0021302A02031C942D952D9D2D831603131F
:101B2E00AA01AB010130A8000030A90001308316D4
:101B3E000313A4070318A50A0030A5072508803A49
:101B4E00FF0081307F02031DAE2DF5302402031CF1
:101B5E00B12DB22DBA2D83160313A401A5010130A8
:101B6E00A6000030A700831203130C107208FF00AA
:101B7E0071088A00700E8300FE0E7E0E09000A1692
:101B8E008A1130270A128A1583120313A0017430AA
:101B9E00A10000300A128A1503210A128A15C030DC
:101BAE000A128A152F210A128A150030F300F4004A
:101BBE000A128A159B210A128A15740883120313BE
:101BCE00D2007308D1000130F3000030F4000A1285
:101BDE008A159B210A128A15740883120313E900D1
:101BEE007308E800FF30CE000330CF0051084E02DC
:101BFE00D3005208031C520A4F02D4005308F300BC
:101C0E005408F4000030F41BFF30F500F6000130EC
:101C1E000A128A1569260A128A1576088312031388
:101C2E00B1007508B0007408AF007308AE003D3007
:101C3E00AD002630AC003730AB003730AA000A12A8
:101C4E008A1159200A128A15831203132D08C70010
:101C5E002C08C6002B08C5002A08C4000A128A15D3
:101C6E000F240A128A15831203134508EB00440849
:101C7E00EA00B030BA003B30BB006B08BD006A080A
:101C8E00BC006908BF006808BE000A168A119227B8
:101C9E000A128A15B030F6000030F7000A168A11C3
:101CAE00DA270A128A15063083120313D000133076
:101CBE00CF00AD30CE00CE0B622ECF0B622ED00BEE
:101CCE00622E080083120313A40024080319702E39
:101CDE00712E852EF61F742E752E852E7309A60075
:101CEE007409A7007509A8007609A900A60A0319A8
:101CFE00A70A0319A80A0319A90A8D2E7608A900A6
:101D0E007508A8007408A7007308A6007608750465
:101D1E0074047304031D942E952E9E2E0030F6002F
:101D2E000030F5000030F4000030F3001E2F963026
:101D3E00A500AC2E0130A50701300310A90CA80C8C
:101D4E00A70CA60CFF3E031DA42EFE302905031D75
:101D5E00B12EB22EA12ECC2E0130A5070130A60732
:101D6E00003003180130A707003003180130A80710
:101D7E00003003180130A90701300310A90CA80C7C
:101D8E00A70CA60CFF3E031DC42EFF302905031D14
:101D9E00D12ED22EB32EDE2E0130A5020130A000A0
:101DAE000310A60DA70DA80DA90DA00BD72EA81BCD
:101DBE00E12EE22EE82E023025020318E72EE82E41
:101DCE00D32E2518EB2EEC2EF42EFF30A605FF3069
:101DDE00A7057F30A805FF30A9050310A50C25081F
:101DEE00A000A101A201A30118300310A00DA10DA6
:101DFE00A20DA30DFF3E031DFC2E2008A6042108F4
:101E0E00A7042208A8042308A90424080319102FE4
:101E1E00112F162FF61F142F152F162FA91729085D
:101E2E00F6002808F5002708F4002608F30008003D
:101E3E00D53084002030F3001030F40083130008F6
:101E4E00F500040AF6007308840075088000040A81
:101E5E00F30076088400F40B252F83120313B001D0
:101E6E00B101B2018312031331083204031D402F56
:101E7E00412F662FFE3086004230F300F30B452FC4
:101E8E0000004B2F2008B00083120313061E502FA4
:101E9E00512F492F542F2108B000861E572F582F2F
:101EAE00522F5B2F2208B000061F5E2F5F2F592F77
:101EBE00622F2308B000861F652F662F602F310317
:101ECE003204031D6B2F6C2F912FFD308600423094
:101EDE00F300F30B702F0000762F2408B00083124E
:101EEE000313061E7B2F7C2F742F7F2F2508B00027
:101EFE00861E822F832F7D2F862F2608B000061F69
:101F0E00892F8A2F842F8D2F2708B000861F902FA0
:101F1E00912F8B2F023031063204031D972F982FED
:101F2E00BD2FFB3086004230F300F30B9C2F0000D8
:101F3E00A22F2808B00083120313061EA72FA82F66
:101F4E00A02FAB2F2908B000861EAE2FAF2FA92FC2
:101F5E00B22F2A08B000061FB52FB62FB02FB92FFB
:101F6E002B08B000861FBC2FBD2FB72F03303106B4
:101F7E003204031DC32FC42FE92FF73086004230E1
:101F8E00F300F30BC82F0000CE2F2C08B0008312E5
:101F9E000313061ED32FD42FCC2FD72F2D08B0000E
:101FAE00861EDA2FDB2FD52FDE2F2E08B000061F50
:101FBE00E12FE22FDC2FE52F2F08B000861FE82F30
:101FCE00E92FE32F0130B1070318B20A0030B20730
:101FDE003208803AFF0080307F02031DF82F043054
:101FEE003102031CFB2FFC2F392F831203133008F1
:021FFE000800D9
:102DE40064008001840A0406031900340406F32EE7
:102DF4008316031385128316031788128312031391
:102E040085160800F030831603138605F030860417
:102E14008113FF30950083160317890108008B176F
:102E24000B17831603130C14831203130C10900155
:102E3400FC308F0016308E00101408008316031324
:102E44009F171F129F12831203131F083F39403824
:102E54009F009E01831603139E01080001300A128D
:102E64008A152F210A168A110830F700C930F60096
:102E7400F60B3A2FF70B3A2F3F2F08008312031358
:102E8400A31B452F462F472F522F2209A4002309A5
:102E9400A500A40A0319A50A2408A2002508A30072
:102EA40008007E088A007F0882000A168A115327C8
:102EB4000A168A118000840A04087D060319003466
:102EC400FF0A0319FE0A572F3134323433344134A4
:102ED4003434353436344234373438343934433482
:102EE4002A3430342334443401340034003400347C
:102EF40000340E340A340A341F341F341F340034AF
:102F040000340134033416341C34083400340034DF
:102F1400003411340A34043404340A3411340034CF
:102F24003C3083120313C1003A08C2000030C300CE
:102F3400C401C501CB01CC014230B6000030B7005A
:102F44003B08B8004130B9000A168A11B5270A16A1
:102F54008A118312031344083A07C000400884000E
:102F6400831380010800831203133808F700C92F64
:102F7400831203133608A9003708AA007730AB0080
:102F84003908AC000A128A11B5250A168A11770885
:102F940084000A128A150A200A168A11003A031DAF
:102FA400D42FD52FBA2F83120313B601B70108000B
:102FB400EF2F7708FF00760884000A128A15002094
:102FC4000A168A110A128A1565210A168A11013015
:102FD400F6070318F70A0030F7077708831203137C
:102FE400FF00760884000A128A1500200A168A1146
:0C2FF400003A031DFE2FFF2FDB2F08000A
:04400E00D520FF3F7B
:00000001FF
